:020000040800F2
:1000000090040020010100082B0E0008970D000845
:10001000290E00087D010008B5110008000000004D
:100020000000000000000000000000004F0E00086B
:100030007F010008000000004D0E0008510E00086E
:100040001B0100081B0100081B0100081B01000820
:100050001B0100081B0100081B0100081B01000810
:100060001B0100081B0100081B0100081B01000800
:100070001B0100081B0100081B0100081B010008F0
:100080001B0100081B0100081B0100081B010008E0
:100090001B0100081B0100081B0100081B010008D0
:1000A0001B0100081B0100081B0100081B010008C0
:1000B0001B0100081B0100081B0100081B010008B0
:1000C0001B0100081B0100081B0100081B010008A0
:1000D0001B010008A91100081B0100081B010008F2
:1000E0001B0100081B0100081B010008DFF80CD0F1
:1000F00000F032F8004800478913000890040020FF
:100100000648804706480047FEE7FEE7FEE7FEE7B1
:10011000FEE7FEE7FEE7FEE7FEE7FEE7C90E0008A2
:10012000ED00000840EA01039B0703D009E008C97D
:10013000121F08C0042AFAD203E011F8013B00F8AC
:10014000013B521EF9D27047421C10F8011B0029D6
:10015000FBD1801A70470000064C074D06E0E068AE
:1001600040F0010394E8070098471034AC42F6D3FE
:10017000FFF7C0FF0814000828140008FEE77047C6
:1001800010B590F821100024022903D004218163C6
:1001900001243DE001680A6822F00E020A6001684D
:1001A0000A6822F001020A601A4A0168914201D1EC
:1001B000012121E0174A1432914201D110211BE0A4
:1001C000144A2832914201D1891515E0114A3C3276
:1001D000914201D189140FE00E4A5032914202D16E
:1001E0004FF4803108E00B4A6432914202D14FF45F
:1001F000801101E04FF08071064A083A51600121F8
:1002000080F82110002180F82010416B01B188474F
:10021000204610BD0800024070B5044600F0F2F818
:100220000546601C02D004480078044400F0EAF857
:10023000401BA042FAD370BD000000202DE9F84F0A
:10024000DFF890A100220AF1040B144601274FF0B9
:100250000F090BF1040E00BF0B6807FA04F52B40E1
:10026000AB4274D1DFF870C14E68A6EB0C0866454E
:100270002BD00DDC032E34D005DC36B3012E19D083
:10028000022E2FD11BE0112E16D0122E2AD119E0EA
:10029000B8F5881F19D006DCB8F5803F15D0B8F541
:1002A000801F1FD111E0B8F5001F0ED0B8F5041F54
:1002B00018D10AE0CA6815E0CA68121D12E0CA68BF
:1002C00008320FE0CA680C320CE08A682AB1012AB1
:1002D0004FF0080203D0456104E0042202E005610A
:1002E00000E00022FF2B01D8064601E000F10406E1
:1002F0004FEA840501D9A5F12005D6F800C009FA16
:1003000005F82CEA080C02FA05F54CEA050CC6F8CB
:1003100000C04D68ED0057D5304DAE6946F001067E
:10032000AE61AD6924F0030605F0010500952C4D82
:1003300006EB050CDCF80850A6074FEA167809FA18
:1003400008F6B543274EB04202D1002610E03BE04C
:10035000254EB04201D101260AE0244EB04201D11F
:10036000022605E0224EB04201D1032600E0042619
:1003700006FA08F62E43CCF808604D68DAF80060FB
:10038000ED03554601D51E4300E09E432E604D68A7
:10039000DBF80060AD035D4601D51E4300E09E43DF
:1003A0002E604D68DEF80060ED02754601D51E43F3
:1003B00000E09E432E604D68AD020E4D2E6801D5C3
:1003C0001E4300E09E432E60641C102CFFF444AFDB
:1003D000BDE8F88F00040140000011100010024039
:1003E0000000014000080140000C014000100140E5
:1003F000001401400C0401400AB101617047090476
:10040000FBE7000001488068704700000000002002
:100410000248816802781144816070470000002022
:10042000074810B5016841F010010160032000F099
:100430009DF8002000F006F800F024F8002010BD20
:100440000020024070B50D4D04464FF47A712878B3
:10045000B1FBF0F00A490968B1FBF0F000F02DFBA8
:1004600048B9102C07D200222146501E00F05EF839
:1004700000206C6070BD012070BD000000000020F5
:100480000C000020214808B5816941F0010181611B
:10049000816901F001010091C16941F08051C161A0
:1004A000C06900F080500090032000F05FF8002247
:1004B00011466FF00B0000F039F8002211466FF082
:1004C0000A0000F033F8002211466FF0090000F036
:1004D0002DF800221146501F00F028F80022114686
:1004E000101F00F023F800221146901E00F01EF8A5
:1004F00000221146501E00F019F80548416821F00D
:10050000E06141F00071416008BD00000010024050
:100510000000014000F01F020121914040098000CD
:1005200000F1E020C0F8001170470000F0B40E4B5D
:100530001B680C46C3F30223C3F10705042D00D941
:100540000425191D072901D2002300E0DB1E012626
:1005500006FA05F1491E214099409E40761E16403C
:100560003143F0BC00F062BC0CED00E0064900F045
:10057000070208684FF6FF03184040EA0220034ACA
:1005800010430860704700000CED00E00000FA0521
:100590002DE9F047DFF83C8105460E46D8F800000B
:1005A00000F00700B0420CD2D8F8001021F007018B
:1005B0003143C8F80010D8F8000000F00700B0423E
:1005C00063D12878444C800705D56068A96820F07D
:1005D000F000084360602878C00745D068680128AB
:1005E00016D02168022816D0890700294DDA6168E3
:1005F00021F0030101436160FFF704FF69680746CA
:1006000041F2883001290FD00229814619D027E014
:1006100021688903E9E78901E7E700BFFFF7F2FEF8
:10062000C11B494501D918E081466068C0F38100CB
:100630000128F3D118E000BFFFF7E4FEC11B4945D4
:100640000BD86068C0F381000228F5D10CE000BF30
:10065000FFF7D8FEC11B494502D90320BDE8F0874A
:10066000606810F00C0FF3D1D8F80010404601F08C
:100670000701B1420BD9016821F007013143016044
:10068000006800F00700B04201D00120E6E72878BA
:10069000400705D56068E96820F4E06008436060C1
:1006A0002878000706D56068296920F4605040EA80
:1006B000C100606000F03CF86168084AC1F30311B2
:1006C000515CC840064908600020FFF7BBFE0020CF
:1006D000C4E700000020024000100240F0130008B0
:1006E0000C00002001480068704700000C0000204A
:1006F0000448054900684968044AC1F30221515C75
:10070000C84070470C000020001002400014000890
:100710000448054900684968044AC1F3C221515C94
:10072000C84070470C000020001002400014000870
:1007300012A185B00FC98DE80F0014A0144A0068FB
:1007400004905168134801F00C03042B10D0082BBF
:100750000ED1C1F38343C9031DF803000AD55168C4
:1007600004AAC1F34041515C0A4A5043B0FBF1F086
:1007700005B0704708494843FAE700000203040542
:10078000060708090A0B0C0D0E0F101001020000DD
:100790000010024000127A0000093D002DE9F84FD8
:1007A00004460078B94DC00748D06868C0F381009E
:1007B000012807D06868C0F38100022809D1686861
:1007C000C00306D52868800338D5606800286FD03C
:1007D00034E06068B0F5803F0BD010B1B0F5A02FC9
:1007E00011D0286820F480302860286820F4802008
:1007F00002E0286840F480302860606888B1FFF724
:1008000001FE064609E0286840F480202860F0E7F1
:10081000FFF7F8FD801B642875D828688003F7D59A
:100820000CE0FFF7EFFD064605E000BFFFF7EAFD2D
:10083000801B6428F0D828688003F7D42078944E71
:1008400080074FF001094FF000083BD5686810F0B1
:100850000C0F07D06868C0F38100022809D16868CE
:10086000C00306D42868800714D5206901281FD149
:1008700010E02069B0B1C6F80090FFF7C3FD07464D
:1008800005E000BFFFF7BEFDC01B0228C4D82868E2
:100890008007F7D52868616920F0F80040EAC100B8
:1008A00028600FE0C6F80080FFF7ACFD074606E0C1
:1008B000E9E000BFFFF7A6FDC01B022823D8286887
:1008C0008007F7D4207800072CD57248A169D9B1E8
:1008D000C0F80090FFF796FD074604E0FFF792FD91
:1008E000C01B02280FD8686A8007F7D56A484FF402
:1008F000FA510068B0FBF1F0009000BF0098411E73
:100900000091FAD20EE080E0C0F80080FFF77AFD97
:10091000074604E0FFF776FDC01B022875D8686A19
:100920008007F7D42078400760D5E8690027C00029
:1009300008D4E86940F08050E861E869012700F0D8
:100940008050009055480168C90513D4016883465A
:1009500041F480710160FFF755FD824606E000BF5B
:10096000FFF750FDA0EB0A0064284ED8DBF800002A
:10097000C005F5D5E06801280AD008B1052813D0D4
:10098000286A20F001002862286A20F0040002E0B2
:10099000286A40F001002862E06841F2883B98B183
:1009A000FFF730FD82460BE0286A40F00400286221
:1009B000EEE700BFFFF726FDA0EB0A0159455AD824
:1009C000286A8007F6D50CE0FFF71CFD824605E09B
:1009D000FFF718FDA0EB0A0159454CD8286A80079B
:1009E000F6D41FB1E86920F08050E861E06988B36F
:1009F0006968C1F38101022945D00228C6F86080E8
:100A000004D0FFF7FFFC044638E034E0FFF7FAFCBF
:100A1000074604E0FFF7F6FCC01B02282BD8286825
:100A20008001F7D4206AB0F5803F05D16868A168DD
:100A300020F4003008436860D4E90801084369687D
:100A400021F4741108436860C6F86090FFF7DAFC7F
:100A5000044606E015E000BFFFF7D4FC001B0228A7
:100A600009D828688001F7D50BE000BFFFF7CAFC62
:100A7000001B022802D90320BDE8F88F28688001F6
:100A8000F4D40020F8E70120F6E70000001002404F
:100A900000004242800442420C00002000700040EE
:100AA0004FF0E0210428086903D020F00400086119
:100AB000704740F00400FAE7704710B5401EB0F1EF
:100AC000807F01D3012010BD4FF0E02460610F2131
:100AD000601700F0ABF90020A06107202061002022
:100AE00010BD10B5FFF7E8FF10BD704770B5026884
:100AF00004461068D168536910F00F0F50D003F00E
:100B0000010501F4907635435DD0C20705D0CA05D2
:100B100003D5E26B42F00102E263420705D5DA0732
:100B200003D0E26B42F00202E263820705D5DA07E6
:100B300003D0E26B42F00402E263020705D5DA0754
:100B400003D0E26B42F00802E263E26B002A33D08A
:100B5000800604D5880602D5204600F0EFF920680B
:100B60004069E16BC0F38010090700D428B3204628
:100B700000F0D6F92068416949061AD5416921F08B
:100B800040014161606BA0B11B494163606BFFF79D
:100B9000F7FA002810D0606B416BBDE87040084741
:100BA000830610D58B060ED52046BDE8704000F0B8
:100BB000C5B92046FFF799FF70BD2046FFF795FFA6
:100BC0000020E06370BD030606D50B0604D5204661
:100BD000BDE8704000F0B6BA4006F3D54806F1D53E
:100BE000D168204621F04001D160202184F83910DD
:100BF00000F0D0F870BD0000110F000870B50400BF
:100C000004D094F83900002510B106E0012070BD31
:100C100084F83850204600F023F8242084F8390066
:100C20002068C16821F40051C160204600F0D2F96B
:100C30002068016921F4904101612068416921F037
:100C40002A0141612068C16841F40051C160E56337
:100C5000202084F8390084F83A00002070BD00009C
:100C600010B50068154986B0884225D114488169BD
:100C700041F4804181618069124C00F4804004900D
:100C80004FF4007000900220019003200390694609
:100C90002046FFF7D3FA00212015CDE9000102918B
:100CA00069462046FFF7CAFA002211462520FFF7C1
:100CB0003DFC2520FFF72EFC06B010BD003801409A
:100CC000001002400008014090F83A30202B22D159
:100CD000F9B1F2B190F83830012B1CD081628285D5
:100CE000C2850021C163222280F83A2080F83810A2
:100CF0000168CA6842F48072CA6001684A6942F0B9
:100D000001024A610068C16841F02001C160002011
:100D100070470120704702207047000010B5194944
:100D200094B088422CD118480DF1340C00F1080120
:100D30001EC98CE81E00D0E90010CDE91110012079
:100D40000221CDE903010590104B802211A80093E8
:100D5000CDE901020E4A0DA906A800F04AFA0522C3
:100D6000012106A800F0CDFA064906A8403100F09E
:100D7000B9FA4EF66020FFF74FFA06A800F02AFAFB
:100D800014B010BD10000020D8130008000C014062
:100D9000000801407047FEE72DE9F0431F4885B089
:100DA000816941F020018161816901F02001049194
:100DB000816941F004018161816901F004010491BC
:100DC000816941F0080181618069DFF8548000F099
:100DD00008000490002280214046FFF70DFBDFF859
:100DE000449040F6F377002239464846FFF704FB6B
:100DF00080200124002502268DE8710069464046C6
:100E0000FFF71CFA01AA009782E87000694648467D
:100E1000FFF714FA05B0BDE8F083000000100240AF
:100E200000080140000C0140FEE770470907090E69
:100E3000002806DA00F00F0000F1E02080F8141D11
:100E4000704700F1E02080F8001470477047704749
:100E500010B5FFF7DDFABDE81040FFF742BE30B530
:100E60008FB001210804CDE900100024029402256E
:100E70000491CDE907504FF4E01009906846FFF760
:100E80008DFC00B1FEE70F20CDE90A054FF480602C
:100E9000CDE90C4002210AA80E94FFF779FB00B1BE
:100EA000FEE7FFF71FFC4FF47A71B0FBF1F0FFF79C
:100EB00004FE0420FFF7F4FD00221146501EFFF748
:100EC00035FB0FB030BD00000D48016841F0010155
:100ED000016041680B4A1140416001680A4A1140B3
:100EE0000160016821F480210160416821F4FE0164
:100EF00041604FF41F0181600449C00308607047DE
:100F0000001002400000FFF8FFFFF6FE08ED00E0D1
:100F100010B5406A0021C185C184FFF7E6FD10BD10
:100F20000168CA6822F49072CA6001684A6922F0B6
:100F300001024A61202180F83A10704710B590F8FC
:100F40003A10222901D0022010BD8168B1F5805FDE
:100F500011D00169002901681FD0496801F07F03A1
:100F6000816A4A1C82620B70C18D491E0904090CFA
:100F7000C18518D02BE00269816A002A0268526894
:100F800005D0D2B20A80816A491C8162ECE7C2F3C3
:100F900008020A80816A891CF7E74A68816A4B1C4B
:100FA00083620A70E0E70168CA6822F02002CA6022
:100FB0000168CA6822F48072CA6001684A6922F036
:100FC00001024A61202180F83A10FFF7A7FE0020B5
:100FD00010BD00002DE9F041044600680169E26897
:100FE00021F44051114301612169A06808436169FE
:100FF00008432168CA6841F20C639A430243CA60FD
:1010000020684169A26921F44071114341614C4952
:1010100020686425322688423CD1FFF779FB00EB3B
:10102000C00101EB001061688900B0FBF1F7FFF728
:101030006FFB00EBC00101EB00106168B046890056
:10104000B0FBF1F0B0FBF5F06FF01801484307EB8F
:10105000800106EB0110B0FBF5F000F0F006FFF7A1
:1010600057FB00EBC00101EB001061688900B0FB89
:10107000F1F0B0FBF5F006EB0016FFF749FB00EBD3
:10108000C00101EB001061688900B0FBF1F7FFF7C8
:101090003FFB3BE0FFF72CFB00EBC00101EB001036
:1010A00061688900B0FBF1F7FFF722FB00EBC0019C
:1010B00001EB00106168B0468900B0FBF1F0B0FBB5
:1010C000F5F06FF01801484307EB800106EB0110C3
:1010D000B0FBF5F000F0F006FFF70AFB00EBC001F3
:1010E00001EB001061688900B0FBF1F0B0FBF5F096
:1010F00006EB0016FFF7FCFA00EBC00101EB001055
:1011000061688900B0FBF1F7FFF7F2FA00EBC0016C
:1011100001EB001061688900B0FBF1F0B0FBF5F065
:101120006FF01801484307EB800108EB0110B0FB9A
:10113000F5F0216800F00F0030448860BDE8F081D0
:101140000038014090F83910212901D00220704761
:101150008168B1F5805F016A0BD04A1C02620268A7
:1011600009785160C18C491E0904090CC1840ED054
:1011700017E009880268C1F308015160016900297C
:10118000016A02D0491C0162ECE7891CFBE7016897
:10119000CA6822F08002CA600068C16841F040015C
:1011A000C1600020704700000148FFF79FBC0000AD
:1011B00010000020FEE702E008C8121F08C1002A44
:1011C000FAD170477047002001E001C1121F002AC8
:1011D000FBD1704710B504463220FFF71DF80121FE
:1011E000204600F0A2F82046BDE81040022100F0A1
:1011F0009CB8F0B587B00446DDE90E67DDE910CE96
:10120000DDE90C05CDE90012ADF814600390ADF8EE
:1012100018C004950293ADF816708DF81AE0684670
:1012200000F007F81C2269462046FEF77BFF07B056
:10123000F0BD10B50446807E012816D0002821D1CB
:101240003220FEF7E9FF2821204600F06EF8282121
:10125000204600F06AF82821204600F066F8282190
:101260002046BDE8104000F060B83220FEF7D4FF01
:101270003821204600F059F83821204600F055F872
:101280003821EDE710BD70B504460D463220FEF75B
:10129000C3FFE18A0122A068FFF7AEF8218B00228C
:1012A000E068FFF7A9F8206900220178FF20884054
:1012B00081B220680068FFF79FF82069012200785A
:1012C00085402068A9B20068FFF796F8A18A01223C
:1012D0006068FFF791F8A18A6068BDE8704000225D
:1012E000FFF78AB870B505460C460220FEF794FF5A
:1012F00003E02846FFF7C7FF641C21780029F8D1D6
:1013000070BD70B5064614460D460120FEF784FFF9
:1013100045B1012D08D1C034E1B23046BDE870407E
:1013200000F003B88034F7E770BD70B504460D4691
:101330003220FEF771FFE18A0022A068FFF75CF817
:10134000218B0022E068FFF757F82069002201781E
:10135000FF20884081B220680068FFF74DF82069BF
:101360000122007885402068A9B20068FFF744F8A0
:10137000A18A01226068FFF73FF8A18A6068BDE892
:1013800070400022FFF738B8FFF74AF8FFF767FD13
:10139000FFF702FD0F480E490C2201604FF4E131C6
:1013A000416000218160C160C0E904128161C161B6
:1013B000FFF724FC00B1FEE706484030FEF7C4FE0C
:1013C000044982B240310348FFF77EFCF4E7000095
:1013D0000038014010000020100020004000800074
:1013E000000C0140000C0140000C0140000C0140C9
:1013F00000000000000000000102030406070809C5
:10140000000000000102030428140008000000206E
:1014100010000000B6110008381400081000002069
:1014200080040000C6110008010000001000000048
:081430000000000000A24A04C4
:04000005080000ED02
:00000001FF
